{
  "contractName": "Counter",
  "abi": [
    {
      "inputs": [],
      "name": "deposit",
      "outputs": [],
      "stateMutability": "payable",
      "type": "function",
      "payable": true
    },
    {
      "inputs": [],
      "name": "withdraw",
      "outputs": [],
      "stateMutability": "nonpayable",
      "type": "function"
    },
    {
      "inputs": [],
      "name": "getMoneyStored",
      "outputs": [
        {
          "internalType": "uint256",
          "name": "",
          "type": "uint256"
        }
      ],
      "stateMutability": "view",
      "type": "function",
      "constant": true
    }
  ],
  "bytecode": "0x60806040526000805534801561001457600080fd5b5061011a806100246000396000f3fe60806040526004361060305760003560e01c80633ccfd60b146035578063d0e30db0146049578063e0a438fb146051575b600080fd5b348015604057600080fd5b5060476079565b005b604f60ca565b005b348015605c57600080fd5b50606360db565b6040518082815260200191505060405180910390f35b3373ffffffffffffffffffffffffffffffffffffffff166108fc6000549081150290604051600060405180830381858888f1935050505015801560c0573d6000803e3d6000fd5b5060008081905550565b346000808282540192505081905550565b6000805490509056fea26469706673582212201c7d119e4de33bdd9c0413d50e5d994b21aa35ec07bb9044c28b7a7706d60c5264736f6c634300060c0033",
  "immutableReferences": {},
  "source": "// SPDX-License-Identifier: MIT\r\npragma solidity >=0.4.22 <0.8.0;\r\n\r\n/**\r\n!!!!!!!!!!!!!!!!!!!!!!!!!!!!!!!!!!!!!!!!!!!!!!!!!!!!!!!!!!!!!!!!!!!!!!!!!!!!!\r\n\r\nIMPORTANT\r\n=========\r\nTHIS IS A MINIMAL EXAMPLE THAT IS NOT SECURE TO USE AS PUBLIC CONTRACT\r\nAS IT DOES NOT PROVE IN ANY WAY WHO STORED TOKENS AND WHO IS ALLOWED TO\r\nWITHDRAW THAT TOKENS!\r\n\r\n!!!!!!!!!!!!!!!!!!!!!!!!!!!!!!!!!!!!!!!!!!!!!!!!!!!!!!!!!!!!!!!!!!!!!!!!!!!!!\r\n */\r\ncontract Counter {\r\n    uint256 moneyStored = 0;\r\n\r\n    function deposit() public payable {\r\n        moneyStored += msg.value;\r\n    }\r\n\r\n    function withdraw() public {\r\n        msg.sender.transfer(moneyStored);\r\n        moneyStored = 0;\r\n    }\r\n\r\n    function getMoneyStored() public view returns (uint256) {\r\n        return moneyStored;\r\n    }\r\n}\r\n",
  "sourcePath": "/home/ukmasmu/projects/dapp_template_v1/src/contracts/Bank.sol",
  "compiler": {
    "name": "solc",
    "version": "0.6.12+commit.27d51765.Emscripten.clang"
  },
  "schemaVersion": "3.4.1",
  "updatedAt": "2021-07-24T11:37:23.762Z",
  "networkType": "ethereum",
  "devdoc": {
    "kind": "dev",
    "methods": {},
    "version": 1
  },
  "userdoc": {
    "kind": "user",
    "methods": {},
    "notice": "!!!!!!!!!!!!!!!!!!!!!!!!!!!!!!!!!!!!!!!!!!!!!!!!!!!!!!!!!!!!!!!!!!!!!!!!!!!!! IMPORTANT ========= THIS IS A MINIMAL EXAMPLE THAT IS NOT SECURE TO USE AS PUBLIC CONTRACT AS IT DOES NOT PROVE IN ANY WAY WHO STORED TOKENS AND WHO IS ALLOWED TO WITHDRAW THAT TOKENS! !!!!!!!!!!!!!!!!!!!!!!!!!!!!!!!!!!!!!!!!!!!!!!!!!!!!!!!!!!!!!!!!!!!!!!!!!!!!!",
    "version": 1
  }
}